:020000040000FA
:060000000A128A11FC2F18
:100EE0007E2FC730F200742FF20B732F772F782FDD
:100EF000FF30F0070318F10AFF30F1077108803A5C
:100F0000FF0080307F02031D872F0130700203181D
:100F10008A2F8B2F712F0800831603130F088F3928
:100F200060388F000613861383120313061386138B
:100F30002830F3000030F400BD2F8312031306178E
:100F400086137408F1007308F0000A128A117027E2
:100F50000A128A1183120313061386177408F1000C
:100F60007308F0000A128A1170270A128A111430CD
:100F7000F3070318F40A0030F4077408803AFF00FE
:100F800080307F02031DC62FA1307302031CC92FBE
:100F9000CA2F9D2FEB2F8312031306178613740895
:100FA000F1007308F0000A128A1170270A128A11E0
:100FB00083120313061386177408F1007308F000F8
:100FC0000A128A1170270A128A11EC30F3070318EB
:100FD000F40AFF30F4077408803AFF0080307F0283
:100FE000031DF42F283073020318F72FF82FCB2F8F
:100FF000982F0A128A11002883010A128A118C2F55
:04400E00E5EFFFFFDC
:00000001FF
